{
  "contractName": "Dex",
  "abi": [
    {
      "inputs": [],
      "stateMutability": "nonpayable",
      "type": "constructor"
    },
    {
      "anonymous": false,
      "inputs": [
        {
          "indexed": false,
          "internalType": "uint256",
          "name": "tradeId",
          "type": "uint256"
        },
        {
          "indexed": false,
          "internalType": "uint256",
          "name": "orderId",
          "type": "uint256"
        },
        {
          "indexed": true,
          "internalType": "bytes32",
          "name": "ticker",
          "type": "bytes32"
        },
        {
          "indexed": true,
          "internalType": "address",
          "name": "trader1",
          "type": "address"
        },
        {
          "indexed": true,
          "internalType": "address",
          "name": "trader2",
          "type": "address"
        },
        {
          "indexed": false,
          "internalType": "uint256",
          "name": "amount",
          "type": "uint256"
        },
        {
          "indexed": false,
          "internalType": "uint256",
          "name": "price",
          "type": "uint256"
        },
        {
          "indexed": false,
          "internalType": "uint256",
          "name": "date",
          "type": "uint256"
        }
      ],
      "name": "NewTrade",
      "type": "event"
    },
    {
      "inputs": [],
      "name": "admin",
      "outputs": [
        {
          "internalType": "address",
          "name": "",
          "type": "address"
        }
      ],
      "stateMutability": "view",
      "type": "function"
    },
    {
      "inputs": [],
      "name": "nextOrderId",
      "outputs": [
        {
          "internalType": "uint256",
          "name": "",
          "type": "uint256"
        }
      ],
      "stateMutability": "view",
      "type": "function"
    },
    {
      "inputs": [],
      "name": "nextTradeId",
      "outputs": [
        {
          "internalType": "uint256",
          "name": "",
          "type": "uint256"
        }
      ],
      "stateMutability": "view",
      "type": "function"
    },
    {
      "inputs": [
        {
          "internalType": "bytes32",
          "name": "",
          "type": "bytes32"
        },
        {
          "internalType": "uint256",
          "name": "",
          "type": "uint256"
        },
        {
          "internalType": "uint256",
          "name": "",
          "type": "uint256"
        }
      ],
      "name": "orderBook",
      "outputs": [
        {
          "internalType": "uint256",
          "name": "id",
          "type": "uint256"
        },
        {
          "internalType": "address",
          "name": "trader",
          "type": "address"
        },
        {
          "internalType": "enum Dex.Side",
          "name": "side",
          "type": "uint8"
        },
        {
          "internalType": "bytes32",
          "name": "ticker",
          "type": "bytes32"
        },
        {
          "internalType": "uint256",
          "name": "amount",
          "type": "uint256"
        },
        {
          "internalType": "uint256",
          "name": "filled",
          "type": "uint256"
        },
        {
          "internalType": "uint256",
          "name": "price",
          "type": "uint256"
        },
        {
          "internalType": "uint256",
          "name": "date",
          "type": "uint256"
        }
      ],
      "stateMutability": "view",
      "type": "function"
    },
    {
      "inputs": [
        {
          "internalType": "uint256",
          "name": "",
          "type": "uint256"
        }
      ],
      "name": "tokenList",
      "outputs": [
        {
          "internalType": "bytes32",
          "name": "",
          "type": "bytes32"
        }
      ],
      "stateMutability": "view",
      "type": "function"
    },
    {
      "inputs": [
        {
          "internalType": "bytes32",
          "name": "",
          "type": "bytes32"
        }
      ],
      "name": "tokens",
      "outputs": [
        {
          "internalType": "bytes32",
          "name": "ticker",
          "type": "bytes32"
        },
        {
          "internalType": "address",
          "name": "tokenAddress",
          "type": "address"
        }
      ],
      "stateMutability": "view",
      "type": "function"
    },
    {
      "inputs": [
        {
          "internalType": "address",
          "name": "",
          "type": "address"
        },
        {
          "internalType": "bytes32",
          "name": "",
          "type": "bytes32"
        }
      ],
      "name": "traderBalances",
      "outputs": [
        {
          "internalType": "uint256",
          "name": "",
          "type": "uint256"
        }
      ],
      "stateMutability": "view",
      "type": "function"
    },
    {
      "inputs": [
        {
          "internalType": "bytes32",
          "name": "ticker",
          "type": "bytes32"
        },
        {
          "internalType": "enum Dex.Side",
          "name": "side",
          "type": "uint8"
        }
      ],
      "name": "getOrders",
      "outputs": [
        {
          "components": [
            {
              "internalType": "uint256",
              "name": "id",
              "type": "uint256"
            },
            {
              "internalType": "address",
              "name": "trader",
              "type": "address"
            },
            {
              "internalType": "enum Dex.Side",
              "name": "side",
              "type": "uint8"
            },
            {
              "internalType": "bytes32",
              "name": "ticker",
              "type": "bytes32"
            },
            {
              "internalType": "uint256",
              "name": "amount",
              "type": "uint256"
            },
            {
              "internalType": "uint256",
              "name": "filled",
              "type": "uint256"
            },
            {
              "internalType": "uint256",
              "name": "price",
              "type": "uint256"
            },
            {
              "internalType": "uint256",
              "name": "date",
              "type": "uint256"
            }
          ],
          "internalType": "struct Dex.Order[]",
          "name": "",
          "type": "tuple[]"
        }
      ],
      "stateMutability": "view",
      "type": "function"
    },
    {
      "inputs": [],
      "name": "getTokens",
      "outputs": [
        {
          "components": [
            {
              "internalType": "bytes32",
              "name": "ticker",
              "type": "bytes32"
            },
            {
              "internalType": "address",
              "name": "tokenAddress",
              "type": "address"
            }
          ],
          "internalType": "struct Dex.Token[]",
          "name": "",
          "type": "tuple[]"
        }
      ],
      "stateMutability": "view",
      "type": "function"
    },
    {
      "inputs": [
        {
          "internalType": "bytes32",
          "name": "ticker",
          "type": "bytes32"
        },
        {
          "internalType": "address",
          "name": "tokenAddress",
          "type": "address"
        }
      ],
      "name": "addToken",
      "outputs": [],
      "stateMutability": "nonpayable",
      "type": "function"
    },
    {
      "inputs": [
        {
          "internalType": "uint256",
          "name": "amount",
          "type": "uint256"
        },
        {
          "internalType": "bytes32",
          "name": "ticker",
          "type": "bytes32"
        }
      ],
      "name": "deposit",
      "outputs": [],
      "stateMutability": "nonpayable",
      "type": "function"
    },
    {
      "inputs": [
        {
          "internalType": "uint256",
          "name": "amount",
          "type": "uint256"
        },
        {
          "internalType": "bytes32",
          "name": "ticker",
          "type": "bytes32"
        }
      ],
      "name": "withdraw",
      "outputs": [],
      "stateMutability": "nonpayable",
      "type": "function"
    },
    {
      "inputs": [
        {
          "internalType": "bytes32",
          "name": "ticker",
          "type": "bytes32"
        },
        {
          "internalType": "uint256",
          "name": "amount",
          "type": "uint256"
        },
        {
          "internalType": "uint256",
          "name": "price",
          "type": "uint256"
        },
        {
          "internalType": "enum Dex.Side",
          "name": "side",
          "type": "uint8"
        }
      ],
      "name": "createLimitOrder",
      "outputs": [],
      "stateMutability": "nonpayable",
      "type": "function"
    },
    {
      "inputs": [
        {
          "internalType": "bytes32",
          "name": "ticker",
          "type": "bytes32"
        },
        {
          "internalType": "uint256",
          "name": "amount",
          "type": "uint256"
        },
        {
          "internalType": "enum Dex.Side",
          "name": "side",
          "type": "uint8"
        }
      ],
      "name": "createMarketOrder",
      "outputs": [],
      "stateMutability": "nonpayable",
      "type": "function"
    }
  ],
  "bytecode": "0x608060405234801561001057600080fd5b5033600460006101000a81548173ffffffffffffffffffffffffffffffffffffffff021916908373ffffffffffffffffffffffffffffffffffffffff1602179055506132ae806100616000396000f3fe608060405234801561001057600080fd5b50600436106100ea5760003560e01c80639776aacf1161008c578063aa6ca80811610066578063aa6ca80814610277578063c9630cb014610295578063d9c0c950146102b1578063f851a440146102cd576100ea565b80639776aacf1461020f5780639ead72221461022b578063a8d2021a1461025b576100ea565b806372ce957e116100c857806372ce957e146101745780637f2c6246146101a4578063813ad083146101c0578063904194a3146101de576100ea565b80630bb431b6146100ef5780632a58b3301461012657806346e9658b14610144575b600080fd5b6101096004803603810190610104919061291a565b6102eb565b60405161011d989796959493929190612fd4565b60405180910390f35b61012e61038a565b60405161013b9190612fb9565b60405180910390f35b61015e6004803603810190610159919061288f565b610390565b60405161016b9190612e71565b60405180910390f35b61018e600480360381019061018991906127c5565b6104df565b60405161019b9190612fb9565b60405180910390f35b6101be60048036038101906101b991906128cb565b610504565b005b6101c86115b8565b6040516101d59190612fb9565b60405180910390f35b6101f860048036038101906101f3919061282a565b6115be565b604051610206929190612ed0565b60405180910390f35b61022960048036038101906102249190612853565b611602565b005b610245600480360381019061024091906129cc565b611750565b6040516102529190612eb5565b60405180910390f35b610275600480360381019061027091906129f5565b611774565b005b61027f611a2c565b60405161028c9190612e93565b60405180910390f35b6102af60048036038101906102aa91906129f5565b611b68565b005b6102cb60048036038101906102c69190612969565b611d8f565b005b6102d5612572565b6040516102e29190612df6565b60405180910390f35b6003602052826000526040600020602052816000526040600020818154811061031357600080fd5b906000526020600020906007020160009250925050508060000154908060010160009054906101000a900473ffffffffffffffffffffffffffffffffffffffff16908060010160149054906101000a900460ff16908060020154908060030154908060040154908060050154908060060154905088565b60055481565b60606003600084815260200190815260200160002060008360018111156103b357fe5b8152602001908152602001600020805480602002602001604051908101604052809291908181526020016000905b828210156104d3578382906000526020600020906007020160405180610100016040529081600082015481526020016001820160009054906101000a900473ffffffffffffffffffffffffffffffffffffffff1673ffffffffffffffffffffffffffffffffffffffff1673ffffffffffffffffffffffffffffffffffffffff1681526020016001820160149054906101000a900460ff16600181111561048357fe5b600181111561048e57fe5b815260200160028201548152602001600382015481526020016004820154815260200160058201548152602001600682015481525050815260200190600101906103e1565b50505050905092915050565b6002602052816000526040600020602052806000526040600020600091509150505481565b82600073ffffffffffffffffffffffffffffffffffffffff1660008083815260200190815260200160002060010160009054906101000a900473ffffffffffffffffffffffffffffffffffffffff1673ffffffffffffffffffffffffffffffffffffffff1614156105aa576040517f08c379a00000000000000000000000000000000000000000000000000000000081526004016105a190612f99565b60405180910390fd5b837f444149000000000000000000000000000000000000000000000000000000000081141561060e576040517f08c379a000000000000000000000000000000000000000000000000000000000815260040161060590612f39565b60405180910390fd5b60018081111561061a57fe5b83600181111561062657fe5b14156106c05783600260003373ffffffffffffffffffffffffffffffffffffffff1673ffffffffffffffffffffffffffffffffffffffff16815260200190815260200160002060008781526020019081526020016000205410156106bf576040517f08c379a00000000000000000000000000000000000000000000000000000000081526004016106b690612f59565b60405180910390fd5b5b60006003600087815260200190815260200160002060008060018111156106e357fe5b8660018111156106ef57fe5b146106fb5760006106fe565b60015b600181111561070957fe5b815260200190815260200160002090506000808690505b8280549050821080156107335750600081115b1561138757600061078784848154811061074957fe5b90600052602060002090600702016004015485858154811061076757fe5b90600052602060002090600702016003015461259890919063ffffffff16565b90506000818311610798578261079a565b815b90506107af818461259890919063ffffffff16565b92506107e1818686815481106107c157fe5b90600052602060002090600702016004015461261b90919063ffffffff16565b8585815481106107ed57fe5b9060005260206000209060070201600401819055503373ffffffffffffffffffffffffffffffffffffffff1685858154811061082557fe5b906000526020600020906007020160010160009054906101000a900473ffffffffffffffffffffffffffffffffffffffff1673ffffffffffffffffffffffffffffffffffffffff168b7fdb0c486e680ba8026643e6a85f8d157b5e7bcd4b32b54d564542570a9eb2041660065489898154811061089e57fe5b906000526020600020906007020160000154868b8b815481106108bd57fe5b906000526020600020906007020160050154426040516108e1959493929190613052565b60405180910390a46001808111156108f557fe5b88600181111561090157fe5b1415610db65761096a81600260003373ffffffffffffffffffffffffffffffffffffffff1673ffffffffffffffffffffffffffffffffffffffff16815260200190815260200160002060008d81526020019081526020016000205461259890919063ffffffff16565b600260003373ffffffffffffffffffffffffffffffffffffffff1673ffffffffffffffffffffffffffffffffffffffff16815260200190815260200160002060008c815260200190815260200160002081905550610a706109f18686815481106109d057fe5b906000526020600020906007020160050154836126a390919063ffffffff16565b600260003373ffffffffffffffffffffffffffffffffffffffff1673ffffffffffffffffffffffffffffffffffffffff16815260200190815260200160002060007f444149000000000000000000000000000000000000000000000000000000000081526020019081526020016000205461261b90919063ffffffff16565b600260003373ffffffffffffffffffffffffffffffffffffffff1673ffffffffffffffffffffffffffffffffffffffff16815260200190815260200160002060007f4441490000000000000000000000000000000000000000000000000000000000815260200190815260200160002081905550610b848160026000888881548110610af857fe5b906000526020600020906007020160010160009054906101000a900473ffffffffffffffffffffffffffffffffffffffff1673ffffffffffffffffffffffffffffffffffffffff1673ffffffffffffffffffffffffffffffffffffffff16815260200190815260200160002060008d81526020019081526020016000205461261b90919063ffffffff16565b60026000878781548110610b9457fe5b906000526020600020906007020160010160009054906101000a900473ffffffffffffffffffffffffffffffffffffffff1673ffffffffffffffffffffffffffffffffffffffff1673ffffffffffffffffffffffffffffffffffffffff16815260200190815260200160002060008c815260200190815260200160002081905550610d04610c48868681548110610c2757fe5b906000526020600020906007020160050154836126a390919063ffffffff16565b60026000888881548110610c5857fe5b906000526020600020906007020160010160009054906101000a900473ffffffffffffffffffffffffffffffffffffffff1673ffffffffffffffffffffffffffffffffffffffff1673ffffffffffffffffffffffffffffffffffffffff16815260200190815260200160002060007f444149000000000000000000000000000000000000000000000000000000000081526020019081526020016000205461259890919063ffffffff16565b60026000878781548110610d1457fe5b906000526020600020906007020160010160009054906101000a900473ffffffffffffffffffffffffffffffffffffffff1673ffffffffffffffffffffffffffffffffffffffff1673ffffffffffffffffffffffffffffffffffffffff16815260200190815260200160002060007f44414900000000000000000000000000000000000000000000000000000000008152602001908152602001600020819055505b60006001811115610dc357fe5b886001811115610dcf57fe5b141561136657610e05858581548110610de457fe5b906000526020600020906007020160050154826126a390919063ffffffff16565b600260003373ffffffffffffffffffffffffffffffffffffffff1673ffffffffffffffffffffffffffffffffffffffff16815260200190815260200160002060007f44414900000000000000000000000000000000000000000000000000000000008152602001908152602001600020541015610eb7576040517f08c379a0000000000000000000000000000000000000000000000000000000008152600401610eae90612f79565b60405180910390fd5b610f1a81600260003373ffffffffffffffffffffffffffffffffffffffff1673ffffffffffffffffffffffffffffffffffffffff16815260200190815260200160002060008d81526020019081526020016000205461261b90919063ffffffff16565b600260003373ffffffffffffffffffffffffffffffffffffffff1673ffffffffffffffffffffffffffffffffffffffff16815260200190815260200160002060008c815260200190815260200160002081905550611020610fa1868681548110610f8057fe5b906000526020600020906007020160050154836126a390919063ffffffff16565b600260003373ffffffffffffffffffffffffffffffffffffffff1673ffffffffffffffffffffffffffffffffffffffff16815260200190815260200160002060007f444149000000000000000000000000000000000000000000000000000000000081526020019081526020016000205461259890919063ffffffff16565b600260003373ffffffffffffffffffffffffffffffffffffffff1673ffffffffffffffffffffffffffffffffffffffff16815260200190815260200160002060007f444149000000000000000000000000000000000000000000000000000000000081526020019081526020016000208190555061113481600260008888815481106110a857fe5b906000526020600020906007020160010160009054906101000a900473ffffffffffffffffffffffffffffffffffffffff1673ffffffffffffffffffffffffffffffffffffffff1673ffffffffffffffffffffffffffffffffffffffff16815260200190815260200160002060008d81526020019081526020016000205461259890919063ffffffff16565b6002600087878154811061114457fe5b906000526020600020906007020160010160009054906101000a900473ffffffffffffffffffffffffffffffffffffffff1673ffffffffffffffffffffffffffffffffffffffff1673ffffffffffffffffffffffffffffffffffffffff16815260200190815260200160002060008c8152602001908152602001600020819055506112b46111f88686815481106111d757fe5b906000526020600020906007020160050154836126a390919063ffffffff16565b6002600088888154811061120857fe5b906000526020600020906007020160010160009054906101000a900473ffffffffffffffffffffffffffffffffffffffff1673ffffffffffffffffffffffffffffffffffffffff1673ffffffffffffffffffffffffffffffffffffffff16815260200190815260200160002060007f444149000000000000000000000000000000000000000000000000000000000081526020019081526020016000205461261b90919063ffffffff16565b600260008787815481106112c457fe5b906000526020600020906007020160010160009054906101000a900473ffffffffffffffffffffffffffffffffffffffff1673ffffffffffffffffffffffffffffffffffffffff1673ffffffffffffffffffffffffffffffffffffffff16815260200190815260200160002060007f44414900000000000000000000000000000000000000000000000000000000008152602001908152602001600020819055505b60066000815480929190600101919050555083806001019450505050610720565b600091505b8280549050821080156113d857508282815481106113a657fe5b9060005260206000209060070201600301548383815481106113c457fe5b906000526020600020906007020160040154145b156115ae5760008290505b60018480549050038110156115125783600182018154811061140157fe5b906000526020600020906007020184828154811061141b57fe5b9060005260206000209060070201600082015481600001556001820160009054906101000a900473ffffffffffffffffffffffffffffffffffffffff168160010160006101000a81548173ffffffffffffffffffffffffffffffffffffffff021916908373ffffffffffffffffffffffffffffffffffffffff1602179055506001820160149054906101000a900460ff168160010160146101000a81548160ff021916908360018111156114cb57fe5b0217905550600282015481600201556003820154816003015560048201548160040155600582015481600501556006820154816006015590505080806001019150506113e3565b508280548061151d57fe5b60019003818190600052602060002090600702016000808201600090556001820160006101000a81549073ffffffffffffffffffffffffffffffffffffffff02191690556001820160146101000a81549060ff02191690556002820160009055600382016000905560048201600090556005820160009055600682016000905550509055818060010192505061138c565b5050505050505050565b60065481565b60006020528060005260406000206000915090508060000154908060010160009054906101000a900473ffffffffffffffffffffffffffffffffffffffff16905082565b600460009054906101000a900473ffffffffffffffffffffffffffffffffffffffff1673ffffffffffffffffffffffffffffffffffffffff163373ffffffffffffffffffffffffffffffffffffffff1614611692576040517f08c379a000000000000000000000000000000000000000000000000000000000815260040161168990612f19565b60405180910390fd5b60405180604001604052808381526020018273ffffffffffffffffffffffffffffffffffffffff168152506000808481526020019081526020016000206000820151816000015560208201518160010160006101000a81548173ffffffffffffffffffffffffffffffffffffffff021916908373ffffffffffffffffffffffffffffffffffffffff16021790555090505060018290806001815401808255809150506001900390600052602060002001600090919091909150555050565b6001818154811061176057600080fd5b906000526020600020016000915090505481565b80600073ffffffffffffffffffffffffffffffffffffffff1660008083815260200190815260200160002060010160009054906101000a900473ffffffffffffffffffffffffffffffffffffffff1673ffffffffffffffffffffffffffffffffffffffff16141561181a576040517f08c379a000000000000000000000000000000000000000000000000000000000815260040161181190612f99565b60405180910390fd5b82600260003373ffffffffffffffffffffffffffffffffffffffff1673ffffffffffffffffffffffffffffffffffffffff16815260200190815260200160002060008481526020019081526020016000205410156118ad576040517f08c379a00000000000000000000000000000000000000000000000000000000081526004016118a490612ef9565b60405180910390fd5b61191083600260003373ffffffffffffffffffffffffffffffffffffffff1673ffffffffffffffffffffffffffffffffffffffff16815260200190815260200160002060008581526020019081526020016000205461259890919063ffffffff16565b600260003373ffffffffffffffffffffffffffffffffffffffff1673ffffffffffffffffffffffffffffffffffffffff16815260200190815260200160002060008481526020019081526020016000208190555060008083815260200190815260200160002060010160009054906101000a900473ffffffffffffffffffffffffffffffffffffffff1673ffffffffffffffffffffffffffffffffffffffff1663a9059cbb33856040518363ffffffff1660e01b81526004016119d4929190612e48565b602060405180830381600087803b1580156119ee57600080fd5b505af1158015611a02573d6000803e3d6000fd5b505050506040513d601f19601f82011682018060405250810190611a269190612801565b50505050565b6060600060018054905067ffffffffffffffff81118015611a4c57600080fd5b50604051908082528060200260200182016040528015611a8657816020015b611a73612729565b815260200190600190039081611a6b5790505b50905060005b600180549050811015611b6057604051806040016040528060008060018581548110611ab457fe5b9060005260206000200154815260200190815260200160002060000154815260200160008060018581548110611ae657fe5b9060005260206000200154815260200190815260200160002060010160009054906101000a900473ffffffffffffffffffffffffffffffffffffffff1673ffffffffffffffffffffffffffffffffffffffff16815250828281518110611b4857fe5b60200260200101819052508080600101915050611a8c565b508091505090565b80600073ffffffffffffffffffffffffffffffffffffffff1660008083815260200190815260200160002060010160009054906101000a900473ffffffffffffffffffffffffffffffffffffffff1673ffffffffffffffffffffffffffffffffffffffff161415611c0e576040517f08c379a0000000000000000000000000000000000000000000000000000000008152600401611c0590612f99565b60405180910390fd5b60008083815260200190815260200160002060010160009054906101000a900473ffffffffffffffffffffffffffffffffffffffff1673ffffffffffffffffffffffffffffffffffffffff166323b872dd3330866040518463ffffffff1660e01b8152600401611c8093929190612e11565b602060405180830381600087803b158015611c9a57600080fd5b505af1158015611cae573d6000803e3d6000fd5b505050506040513d601f19601f82011682018060405250810190611cd29190612801565b50611d3683600260003373ffffffffffffffffffffffffffffffffffffffff1673ffffffffffffffffffffffffffffffffffffffff16815260200190815260200160002060008581526020019081526020016000205461261b90919063ffffffff16565b600260003373ffffffffffffffffffffffffffffffffffffffff1673ffffffffffffffffffffffffffffffffffffffff168152602001908152602001600020600084815260200190815260200160002081905550505050565b83600073ffffffffffffffffffffffffffffffffffffffff1660008083815260200190815260200160002060010160009054906101000a900473ffffffffffffffffffffffffffffffffffffffff1673ffffffffffffffffffffffffffffffffffffffff161415611e35576040517f08c379a0000000000000000000000000000000000000000000000000000000008152600401611e2c90612f99565b60405180910390fd5b847f4441490000000000000000000000000000000000000000000000000000000000811415611e99576040517f08c379a0000000000000000000000000000000000000000000000000000000008152600401611e9090612f39565b60405180910390fd5b600180811115611ea557fe5b836001811115611eb157fe5b1415611f4f5784600260003373ffffffffffffffffffffffffffffffffffffffff1673ffffffffffffffffffffffffffffffffffffffff1681526020019081526020016000206000888152602001908152602001600020541015611f4a576040517f08c379a0000000000000000000000000000000000000000000000000000000008152600401611f4190612f59565b60405180910390fd5b612015565b611f6284866126a390919063ffffffff16565b600260003373ffffffffffffffffffffffffffffffffffffffff1673ffffffffffffffffffffffffffffffffffffffff16815260200190815260200160002060007f44414900000000000000000000000000000000000000000000000000000000008152602001908152602001600020541015612014576040517f08c379a000000000000000000000000000000000000000000000000000000000815260040161200b90612f79565b60405180910390fd5b5b600060036000888152602001908152602001600020600085600181111561203857fe5b815260200190815260200160002090508060405180610100016040528060055481526020013373ffffffffffffffffffffffffffffffffffffffff16815260200186600181111561208557fe5b8152602001898152602001888152602001600081526020018781526020014281525090806001815401808255809150506001900390600052602060002090600702016000909190919091506000820151816000015560208201518160010160006101000a81548173ffffffffffffffffffffffffffffffffffffffff021916908373ffffffffffffffffffffffffffffffffffffffff16021790555060408201518160010160146101000a81548160ff0219169083600181111561214557fe5b0217905550606082015181600201556080820151816003015560a0820151816004015560c0820151816005015560e08201518160060155505060008082805490501161219257600061219b565b60018280549050035b90505b600081111561255657600060018111156121b457fe5b8560018111156121c057fe5b14801561220957508181815481106121d457fe5b9060005260206000209060070201600501548260018303815481106121f557fe5b906000526020600020906007020160050154115b1561221357612556565b60018081111561221f57fe5b85600181111561222b57fe5b148015612274575081818154811061223f57fe5b90600052602060002090600702016005015482600183038154811061226057fe5b906000526020600020906007020160050154105b1561227e57612556565b600082600183038154811061228f57fe5b906000526020600020906007020160405180610100016040529081600082015481526020016001820160009054906101000a900473ffffffffffffffffffffffffffffffffffffffff1673ffffffffffffffffffffffffffffffffffffffff1673ffffffffffffffffffffffffffffffffffffffff1681526020016001820160149054906101000a900460ff16600181111561232757fe5b600181111561233257fe5b815260200160028201548152602001600382015481526020016004820154815260200160058201548152602001600682015481525050905082828154811061237657fe5b906000526020600020906007020183600184038154811061239357fe5b9060005260206000209060070201600082015481600001556001820160009054906101000a900473ffffffffffffffffffffffffffffffffffffffff168160010160006101000a81548173ffffffffffffffffffffffffffffffffffffffff021916908373ffffffffffffffffffffffffffffffffffffffff1602179055506001820160149054906101000a900460ff168160010160146101000a81548160ff0219169083600181111561244357fe5b021790555060028201548160020155600382015481600301556004820154816004015560058201548160050155600682015481600601559050508083838154811061248a57fe5b90600052602060002090600702016000820151816000015560208201518160010160006101000a81548173ffffffffffffffffffffffffffffffffffffffff021916908373ffffffffffffffffffffffffffffffffffffffff16021790555060408201518160010160146101000a81548160ff0219169083600181111561250d57fe5b0217905550606082015181600201556080820151816003015560a0820151816004015560c0820151816005015560e082015181600601559050508180600190039250505061219e565b6005600081548092919060010191905055505050505050505050565b600460009054906101000a900473ffffffffffffffffffffffffffffffffffffffff1681565b600082821115612610576040517f08c379a000000000000000000000000000000000000000000000000000000000815260040180806020018281038252601e8152602001807f536166654d6174683a207375627472616374696f6e206f766572666c6f77000081525060200191505060405180910390fd5b818303905092915050565b600080828401905083811015612699576040517f08c379a000000000000000000000000000000000000000000000000000000000815260040180806020018281038252601b8152602001807f536166654d6174683a206164646974696f6e206f766572666c6f77000000000081525060200191505060405180910390fd5b8091505092915050565b6000808314156126b65760009050612723565b60008284029050828482816126c757fe5b041461271e576040517f08c379a00000000000000000000000000000000000000000000000000000000081526004018080602001828103825260218152602001806132586021913960400191505060405180910390fd5b809150505b92915050565b604051806040016040528060008019168152602001600073ffffffffffffffffffffffffffffffffffffffff1681525090565b60008135905061276b816131eb565b92915050565b60008151905061278081613202565b92915050565b60008135905061279581613219565b92915050565b6000813590506127aa81613230565b92915050565b6000813590506127bf81613240565b92915050565b600080604083850312156127d857600080fd5b60006127e68582860161275c565b92505060206127f785828601612786565b9150509250929050565b60006020828403121561281357600080fd5b600061282184828501612771565b91505092915050565b60006020828403121561283c57600080fd5b600061284a84828501612786565b91505092915050565b6000806040838503121561286657600080fd5b600061287485828601612786565b92505060206128858582860161275c565b9150509250929050565b600080604083850312156128a257600080fd5b60006128b085828601612786565b92505060206128c18582860161279b565b9150509250929050565b6000806000606084860312156128e057600080fd5b60006128ee86828701612786565b93505060206128ff868287016127b0565b92505060406129108682870161279b565b9150509250925092565b60008060006060848603121561292f57600080fd5b600061293d86828701612786565b935050602061294e868287016127b0565b925050604061295f868287016127b0565b9150509250925092565b6000806000806080858703121561297f57600080fd5b600061298d87828801612786565b945050602061299e878288016127b0565b93505060406129af878288016127b0565b92505060606129c08782880161279b565b91505092959194509250565b6000602082840312156129de57600080fd5b60006129ec848285016127b0565b91505092915050565b60008060408385031215612a0857600080fd5b6000612a16858286016127b0565b9250506020612a2785828601612786565b9150509250929050565b6000612a3d8383612d07565b6101008301905092915050565b6000612a568383612da9565b60408301905092915050565b612a6b8161318d565b82525050565b612a7a81613128565b82525050565b612a8981613128565b82525050565b6000612a9a826130c5565b612aa481856130f5565b9350612aaf836130a5565b8060005b83811015612ae0578151612ac78882612a31565b9750612ad2836130db565b925050600181019050612ab3565b5085935050505092915050565b6000612af8826130d0565b612b028185613106565b9350612b0d836130b5565b8060005b83811015612b3e578151612b258882612a4a565b9750612b30836130e8565b925050600181019050612b11565b5085935050505092915050565b612b5481613146565b82525050565b612b6381613146565b82525050565b612b728161319f565b82525050565b612b818161319f565b82525050565b6000612b94600f83613117565b91507f62616c616e636520746f6f206c6f7700000000000000000000000000000000006000830152602082019050919050565b6000612bd4600a83613117565b91507f6f6e6c792061646d696e000000000000000000000000000000000000000000006000830152602082019050919050565b6000612c14601083613117565b91507f63616e6e6f7420747261646520444149000000000000000000000000000000006000830152602082019050919050565b6000612c54601583613117565b91507f746f6b656e2062616c616e636520746f6f206c6f7700000000000000000000006000830152602082019050919050565b6000612c94601383613117565b91507f6461692062616c616e636520746f6f206c6f77000000000000000000000000006000830152602082019050919050565b6000612cd4601983613117565b91507f7468697320746f6b656e20646f6573206e6f74206578697374000000000000006000830152602082019050919050565b61010082016000820151612d1e6000850182612dd8565b506020820151612d316020850182612a71565b506040820151612d446040850182612b69565b506060820151612d576060850182612b4b565b506080820151612d6a6080850182612dd8565b5060a0820151612d7d60a0850182612dd8565b5060c0820151612d9060c0850182612dd8565b5060e0820151612da360e0850182612dd8565b50505050565b604082016000820151612dbf6000850182612b4b565b506020820151612dd26020850182612a71565b50505050565b612de181613183565b82525050565b612df081613183565b82525050565b6000602082019050612e0b6000830184612a80565b92915050565b6000606082019050612e266000830186612a62565b612e336020830185612a80565b612e406040830184612de7565b949350505050565b6000604082019050612e5d6000830185612a62565b612e6a6020830184612de7565b9392505050565b60006020820190508181036000830152612e8b8184612a8f565b905092915050565b60006020820190508181036000830152612ead8184612aed565b905092915050565b6000602082019050612eca6000830184612b5a565b92915050565b6000604082019050612ee56000830185612b5a565b612ef26020830184612a80565b9392505050565b60006020820190508181036000830152612f1281612b87565b9050919050565b60006020820190508181036000830152612f3281612bc7565b9050919050565b60006020820190508181036000830152612f5281612c07565b9050919050565b60006020820190508181036000830152612f7281612c47565b9050919050565b60006020820190508181036000830152612f9281612c87565b9050919050565b60006020820190508181036000830152612fb281612cc7565b9050919050565b6000602082019050612fce6000830184612de7565b92915050565b600061010082019050612fea600083018b612de7565b612ff7602083018a612a80565b6130046040830189612b78565b6130116060830188612b5a565b61301e6080830187612de7565b61302b60a0830186612de7565b61303860c0830185612de7565b61304560e0830184612de7565b9998505050505050505050565b600060a0820190506130676000830188612de7565b6130746020830187612de7565b6130816040830186612de7565b61308e6060830185612de7565b61309b6080830184612de7565b9695505050505050565b6000819050602082019050919050565b6000819050602082019050919050565b600081519050919050565b600081519050919050565b6000602082019050919050565b6000602082019050919050565b600082825260208201905092915050565b600082825260208201905092915050565b600082825260208201905092915050565b600061313382613163565b9050919050565b60008115159050919050565b6000819050919050565b600081905061315e826131d7565b919050565b600073ffffffffffffffffffffffffffffffffffffffff82169050919050565b6000819050919050565b6000613198826131b1565b9050919050565b60006131aa82613150565b9050919050565b60006131bc826131c3565b9050919050565b60006131ce82613163565b9050919050565bfe5b600281106131e8576131e76131d5565b5b50565b6131f481613128565b81146131ff57600080fd5b50565b61320b8161313a565b811461321657600080fd5b50565b61322281613146565b811461322d57600080fd5b50565b6002811061323d57600080fd5b50565b61324981613183565b811461325457600080fd5b5056fe536166654d6174683a206d756c7469706c69636174696f6e206f766572666c6f77a2646970667358221220ec9bf8abaf2673edd2aa3b72e1a4903dacfb75897eed2dbff4906ebe06fef34a64736f6c63430007060033",
  "immutableReferences": {},
  "source": "// SPDX-License-Identifier: MIT\r\npragma solidity >=0.4.22 <0.8.0;\r\npragma experimental ABIEncoderV2;\r\n\r\nimport '@openzeppelin/contracts/token/ERC20/IERC20.sol';\r\nimport '@openzeppelin/contracts/math/SafeMath.sol';\r\n\r\ncontract Dex {\r\n\r\n    using SafeMath for uint;\r\n       \r\n    enum Side {\r\n        BUY,\r\n        SELL\r\n    }\r\n    \r\n    struct Token {\r\n        bytes32 ticker;\r\n        address tokenAddress;\r\n    }\r\n    \r\n    struct Order {\r\n        uint id;\r\n        address trader;\r\n        Side side;\r\n        bytes32 ticker;\r\n        uint amount;\r\n        uint filled;\r\n        uint price;\r\n        uint date;\r\n    }\r\n    \r\n    mapping(bytes32 => Token) public tokens;\r\n    bytes32[] public tokenList;\r\n    mapping(address => mapping(bytes32 => uint)) public traderBalances;\r\n    mapping(bytes32 => mapping(uint => Order[])) public orderBook;\r\n    address public admin;\r\n    uint public nextOrderId;\r\n    uint public nextTradeId;\r\n    bytes32 constant DAI = bytes32('DAI');\r\n    \r\n    event NewTrade(\r\n        uint tradeId,\r\n        uint orderId,\r\n        bytes32 indexed ticker,\r\n        address indexed trader1,\r\n        address indexed trader2,\r\n        uint amount,\r\n        uint price,\r\n        uint date\r\n    );\r\n    \r\n    constructor() {\r\n        admin = msg.sender;\r\n    }\r\n\r\n    function getOrders(\r\n      bytes32 ticker, \r\n      Side side) \r\n      external \r\n      view\r\n      returns(Order[] memory) {\r\n      return orderBook[ticker][uint(side)];\r\n    }\r\n\r\n    function getTokens() \r\n      external \r\n      view \r\n      returns(Token[] memory) {\r\n      Token[] memory _tokens = new Token[](tokenList.length);\r\n      for (uint i = 0; i < tokenList.length; i++) {\r\n        _tokens[i] = Token(\r\n          tokens[tokenList[i]].ticker,\r\n          tokens[tokenList[i]].tokenAddress\r\n        );\r\n      }\r\n      return _tokens;\r\n    }\r\n    \r\n    function addToken(\r\n        bytes32 ticker,\r\n        address tokenAddress)\r\n        onlyAdmin()\r\n        external {\r\n        tokens[ticker] = Token(ticker, tokenAddress);\r\n        tokenList.push(ticker);\r\n    }\r\n    \r\n    function deposit(\r\n        uint amount,\r\n        bytes32 ticker)\r\n        tokenExist(ticker)\r\n        external {\r\n        IERC20(tokens[ticker].tokenAddress).transferFrom(\r\n            msg.sender,\r\n            address(this),\r\n            amount\r\n        );\r\n        traderBalances[msg.sender][ticker] = traderBalances[msg.sender][ticker].add(amount);\r\n    }\r\n    \r\n    function withdraw(\r\n        uint amount,\r\n        bytes32 ticker)\r\n        tokenExist(ticker)\r\n        external {\r\n        require(\r\n            traderBalances[msg.sender][ticker] >= amount,\r\n            'balance too low'\r\n        ); \r\n        traderBalances[msg.sender][ticker] = traderBalances[msg.sender][ticker].sub(amount);\r\n        IERC20(tokens[ticker].tokenAddress).transfer(msg.sender, amount);\r\n    }\r\n    \r\n    function createLimitOrder(\r\n        bytes32 ticker,\r\n        uint amount,\r\n        uint price,\r\n        Side side)\r\n        tokenExist(ticker)\r\n        tokenIsNotDai(ticker)\r\n        external {\r\n        if(side == Side.SELL) {\r\n            require(\r\n                traderBalances[msg.sender][ticker] >= amount, \r\n                'token balance too low'\r\n            );\r\n        } else {\r\n            require(\r\n                traderBalances[msg.sender][DAI] >= amount.mul(price),\r\n                'dai balance too low'\r\n            );\r\n        }\r\n        Order[] storage orders = orderBook[ticker][uint(side)];\r\n        orders.push(Order(\r\n            nextOrderId,\r\n            msg.sender,\r\n            side,\r\n            ticker,\r\n            amount,\r\n            0,\r\n            price,\r\n            block.timestamp\r\n        ));\r\n        \r\n        uint i = orders.length > 0 ? orders.length - 1 : 0;\r\n        while(i > 0) {\r\n            if(side == Side.BUY && orders[i - 1].price > orders[i].price) {\r\n                break;   \r\n            }\r\n            if(side == Side.SELL && orders[i - 1].price < orders[i].price) {\r\n                break;   \r\n            }\r\n            Order memory order = orders[i - 1];\r\n            orders[i - 1] = orders[i];\r\n            orders[i] = order;\r\n            i--;\r\n        }\r\n        nextOrderId++;\r\n    }\r\n    \r\n    function createMarketOrder(\r\n        bytes32 ticker,\r\n        uint amount,\r\n        Side side)\r\n        tokenExist(ticker)\r\n        tokenIsNotDai(ticker)\r\n        external {\r\n        if(side == Side.SELL) {\r\n            require(\r\n                traderBalances[msg.sender][ticker] >= amount, \r\n                'token balance too low'\r\n            );\r\n        }\r\n        Order[] storage orders = orderBook[ticker][uint(side == Side.BUY ? Side.SELL : Side.BUY)];\r\n        uint i;\r\n        uint remaining = amount;\r\n        \r\n        while(i < orders.length && remaining > 0) {\r\n            uint available = orders[i].amount.sub(orders[i].filled);\r\n            uint matched = (remaining > available) ? available : remaining;\r\n            remaining = remaining.sub(matched);\r\n            orders[i].filled = orders[i].filled.add(matched);\r\n            emit NewTrade(\r\n                nextTradeId,\r\n                orders[i].id,\r\n                ticker,\r\n                orders[i].trader,\r\n                msg.sender,\r\n                matched,\r\n                orders[i].price,\r\n                block.timestamp\r\n            );\r\n            if(side == Side.SELL) {\r\n                traderBalances[msg.sender][ticker] = traderBalances[msg.sender][ticker].sub(matched);\r\n                traderBalances[msg.sender][DAI] = traderBalances[msg.sender][DAI].add(matched.mul(orders[i].price));\r\n                traderBalances[orders[i].trader][ticker] = traderBalances[orders[i].trader][ticker].add(matched);\r\n                traderBalances[orders[i].trader][DAI] = traderBalances[orders[i].trader][DAI].sub(matched.mul(orders[i].price));\r\n            }\r\n            if(side == Side.BUY) {\r\n                require(\r\n                    traderBalances[msg.sender][DAI] >= matched.mul(orders[i].price),\r\n                    'dai balance too low'\r\n                );\r\n                traderBalances[msg.sender][ticker] = traderBalances[msg.sender][ticker].add(matched);\r\n                traderBalances[msg.sender][DAI] = traderBalances[msg.sender][DAI].sub(matched.mul(orders[i].price));\r\n                traderBalances[orders[i].trader][ticker] = traderBalances[orders[i].trader][ticker].sub(matched);\r\n                traderBalances[orders[i].trader][DAI] = traderBalances[orders[i].trader][DAI].add(matched.mul(orders[i].price));\r\n            }\r\n            nextTradeId++;\r\n            i++;\r\n        }\r\n        \r\n        i = 0;\r\n        while(i < orders.length && orders[i].filled == orders[i].amount) {\r\n            for(uint j = i; j < orders.length - 1; j++ ) {\r\n                orders[j] = orders[j + 1];\r\n            }\r\n            orders.pop();\r\n            i++;\r\n        }\r\n    }\r\n   \r\n    modifier tokenIsNotDai(bytes32 ticker) {\r\n       require(ticker != DAI, 'cannot trade DAI');\r\n       _;\r\n    }     \r\n    \r\n    modifier tokenExist(bytes32 ticker) {\r\n        require(\r\n            tokens[ticker].tokenAddress != address(0),\r\n            'this token does not exist'\r\n        );\r\n        _;\r\n    }\r\n    \r\n    modifier onlyAdmin() {\r\n        require(msg.sender == admin, 'only admin');\r\n        _;\r\n    }\r\n}",
  "sourcePath": "C:/Users/Kieran/documents/blockchain-masterclass/dex/contracts/Dex.sol",
  "compiler": {
    "name": "solc",
    "version": "0.7.6+commit.7338295f.Emscripten.clang"
  },
  "schemaVersion": "3.3.3",
  "updatedAt": "2021-03-12T01:27:34.840Z",
  "devdoc": {
    "kind": "dev",
    "methods": {},
    "version": 1
  },
  "userdoc": {
    "kind": "user",
    "methods": {},
    "version": 1
  }
}